{"src/PolicyRouter.sol":{"PolicyRouter":{"abi":[{"inputs":[{"internalType":"address","name":"initialOwner","type":"address"}],"stateMutability":"nonpayable","type":"constructor"},{"inputs":[],"name":"AmountExceedsVenueLimit","type":"error"},{"inputs":[],"name":"CooldownActive","type":"error"},{"inputs":[],"name":"ExecutionOutputTooLow","type":"error"},{"inputs":[],"name":"NotOwner","type":"error"},{"inputs":[],"name":"NotPolicyAdmin","type":"error"},{"inputs":[],"name":"QuoteExpired","type":"error"},{"inputs":[],"name":"QuoteTooOld","type":"error"},{"inputs":[],"name":"RecipientMismatch","type":"error"},{"inputs":[],"name":"RiskScoreTooLow","type":"error"},{"inputs":[],"name":"RouterPausedError","type":"error"},{"inputs":[],"name":"TokenNotAllowed","type":"error"},{"inputs":[],"name":"VenueNotEnabled","type":"error"},{"anonymous":false,"inputs":[{"indexed":true,"internalType":"address","name":"previousOwner","type":"address"},{"indexed":true,"internalType":"address","name":"newOwner","type":"address"}],"name":"OwnerTransferred","type":"event"},{"anonymous":false,"inputs":[{"indexed":true,"internalType":"address","name":"user","type":"address"},{"indexed":true,"internalType":"bytes32","name":"venueIdHash","type":"bytes32"},{"indexed":false,"internalType":"enum PolicyRouter.PolicyAction","name":"action","type":"uint8"},{"indexed":false,"internalType":"address","name":"token","type":"address"},{"indexed":false,"internalType":"uint256","name":"amount","type":"uint256"},{"indexed":false,"internalType":"address","name":"recipient","type":"address"}],"name":"PolicyActionExecuted","type":"event"},{"anonymous":false,"inputs":[{"indexed":true,"internalType":"address","name":"admin","type":"address"},{"indexed":false,"internalType":"bool","name":"allowed","type":"bool"}],"name":"PolicyAdminSet","type":"event"},{"anonymous":false,"inputs":[{"indexed":false,"internalType":"bool","name":"paused","type":"bool"}],"name":"RouterPaused","type":"event"},{"anonymous":false,"inputs":[{"indexed":true,"internalType":"address","name":"token","type":"address"},{"indexed":false,"internalType":"bool","name":"allowed","type":"bool"}],"name":"TokenAllowed","type":"event"},{"anonymous":false,"inputs":[{"indexed":true,"internalType":"address","name":"user","type":"address"},{"indexed":false,"internalType":"uint8","name":"riskScore","type":"uint8"}],"name":"UserRiskScoreSet","type":"event"},{"anonymous":false,"inputs":[{"indexed":true,"internalType":"bytes32","name":"venueIdHash","type":"bytes32"},{"indexed":true,"internalType":"address","name":"executor","type":"address"},{"indexed":false,"internalType":"bool","name":"enabled","type":"bool"},{"indexed":false,"internalType":"uint128","name":"maxAmount","type":"uint128"},{"indexed":false,"internalType":"uint32","name":"cooldownSeconds","type":"uint32"},{"indexed":false,"internalType":"uint32","name":"maxQuoteAgeSeconds","type":"uint32"},{"indexed":false,"internalType":"uint8","name":"minUserRiskScore","type":"uint8"},{"indexed":false,"internalType":"bool","name":"requiresRecipientMatch","type":"bool"}],"name":"VenuePolicySet","type":"event"},{"inputs":[{"internalType":"address","name":"","type":"address"}],"name":"allowedTokens","outputs":[{"internalType":"bool","name":"","type":"bool"}],"stateMutability":"view","type":"function"},{"inputs":[{"components":[{"internalType":"address","name":"user","type":"address"},{"internalType":"enum PolicyRouter.PolicyAction","name":"action","type":"uint8"},{"internalType":"bytes32","name":"venueIdHash","type":"bytes32"},{"internalType":"address","name":"token","type":"address"},{"internalType":"uint256","name":"amount","type":"uint256"},{"internalType":"uint256","name":"minOutputAmount","type":"uint256"},{"internalType":"uint64","name":"quoteTimestamp","type":"uint64"},{"internalType":"uint64","name":"quoteExpiresAt","type":"uint64"},{"internalType":"uint16","name":"maxSlippageBps","type":"uint16"},{"internalType":"address","name":"recipient","type":"address"}],"internalType":"struct PolicyRouter.ExecutionRequest","name":"request","type":"tuple"}],"name":"executePolicyAction","outputs":[{"internalType":"uint256","name":"outputAmount","type":"uint256"}],"stateMutability":"nonpayable","type":"function"},{"inputs":[{"internalType":"address","name":"","type":"address"},{"internalType":"bytes32","name":"","type":"bytes32"}],"name":"lastExecutionAt","outputs":[{"internalType":"uint256","name":"","type":"uint256"}],"stateMutability":"view","type":"function"},{"inputs":[],"name":"owner","outputs":[{"internalType":"address","name":"","type":"address"}],"stateMutability":"view","type":"function"},{"inputs":[],"name":"paused","outputs":[{"internalType":"bool","name":"","type":"bool"}],"stateMutability":"view","type":"function"},{"inputs":[{"internalType":"address","name":"","type":"address"}],"name":"policyAdmins","outputs":[{"internalType":"bool","name":"","type":"bool"}],"stateMutability":"view","type":"function"},{"inputs":[{"internalType":"address","name":"token","type":"address"},{"internalType":"bool","name":"allowed","type":"bool"}],"name":"setAllowedToken","outputs":[],"stateMutability":"nonpayable","type":"function"},{"inputs":[{"internalType":"bool","name":"nextPaused","type":"bool"}],"name":"setPaused","outputs":[],"stateMutability":"nonpayable","type":"function"},{"inputs":[{"internalType":"address","name":"admin","type":"address"},{"internalType":"bool","name":"allowed","type":"bool"}],"name":"setPolicyAdmin","outputs":[],"stateMutability":"nonpayable","type":"function"},{"inputs":[{"internalType":"address","name":"user","type":"address"},{"internalType":"uint8","name":"riskScore","type":"uint8"}],"name":"setUserRiskScore","outputs":[],"stateMutability":"nonpayable","type":"function"},{"inputs":[{"internalType":"bytes32","name":"venueIdHash","type":"bytes32"},{"components":[{"internalType":"bool","name":"enabled","type":"bool"},{"internalType":"address","name":"executor","type":"address"},{"internalType":"uint128","name":"maxAmount","type":"uint128"},{"internalType":"uint32","name":"cooldownSeconds","type":"uint32"},{"internalType":"uint32","name":"maxQuoteAgeSeconds","type":"uint32"},{"internalType":"uint8","name":"minUserRiskScore","type":"uint8"},{"internalType":"bool","name":"requiresRecipientMatch","type":"bool"}],"internalType":"struct PolicyRouter.VenuePolicy","name":"policy","type":"tuple"}],"name":"setVenuePolicy","outputs":[],"stateMutability":"nonpayable","type":"function"},{"inputs":[{"internalType":"address","name":"newOwner","type":"address"}],"name":"transferOwnership","outputs":[],"stateMutability":"nonpayable","type":"function"},{"inputs":[{"internalType":"address","name":"","type":"address"}],"name":"userRiskScores","outputs":[{"internalType":"uint8","name":"","type":"uint8"}],"stateMutability":"view","type":"function"},{"inputs":[{"internalType":"bytes32","name":"","type":"bytes32"}],"name":"venuePolicies","outputs":[{"internalType":"bool","name":"enabled","type":"bool"},{"internalType":"address","name":"executor","type":"address"},{"internalType":"uint128","name":"maxAmount","type":"uint128"},{"internalType":"uint32","name":"cooldownSeconds","type":"uint32"},{"internalType":"uint32","name":"maxQuoteAgeSeconds","type":"uint32"},{"internalType":"uint8","name":"minUserRiskScore","type":"uint8"},{"internalType":"bool","name":"requiresRecipientMatch","type":"bool"}],"stateMutability":"view","type":"function"}],"evm":{"bytecode":{"linkReferences":{},"object":"608060405234801561001057600080fd5b506040516112c23803806112c283398101604081905261002f9161007d565b600080546001600160a01b0319166001600160a01b03831690811782556040519091907f8934ce4adea8d9ce0d714d2c22b86790e41b7731c84b926fbbdc1d40ff6533c9908290a3506100ad565b60006020828403121561008f57600080fd5b81516001600160a01b03811681146100a657600080fd5b9392505050565b611206806100bc6000396000f3fe608060405234801561001057600080fd5b50600436106100ea5760003560e01c80638aaa22841161008c578063bf5d626011610066578063bf5d626014610235578063d2ae4fa314610248578063e744092e14610313578063f2fde38b1461033657600080fd5b80638aaa2284146101d45780638da5cb5b146101e75780639ca1bfbe1461021257600080fd5b8063594b1119116100c8578063594b1119146101555780635c975abb1461018a5780635fffea45146101ae578063648f4627146101c157600080fd5b806316c38b3c146100ef5780631f5f116214610104578063309a8d081461012a575b600080fd5b6101026100fd366004610d55565b610349565b005b610117610112366004610d79565b6103ea565b6040519081526020015b60405180910390f35b610117610138366004610da7565b600560209081526000928352604080842090915290825290205481565b610178610163366004610dd3565b60026020526000908152604090205460ff1681565b60405160ff9091168152602001610121565b60005461019e90600160a01b900460ff1681565b6040519015158152602001610121565b6101026101bc366004610df0565b6109a5565b6101026101cf366004610e38565b610a30565b6101026101e2366004610df0565b610ad2565b6000546101fa906001600160a01b031681565b6040516001600160a01b039091168152602001610121565b61019e610220366004610dd3565b60016020526000908152604090205460ff1681565b610102610243366004610e66565b610b73565b6102bc610256366004610e9f565b6004602052600090815260409020805460019091015460ff808316926001600160a01b0361010090910416916001600160801b0381169163ffffffff600160801b8304811692600160a01b810490911691600160c01b8204811691600160c81b90041687565b6040805197151588526001600160a01b0390961660208801526001600160801b039094169486019490945263ffffffff918216606086015216608084015260ff90911660a0830152151560c082015260e001610121565b61019e610321366004610dd3565b60036020526000908152604090205460ff1681565b610102610344366004610dd3565b610cbe565b6000546001600160a01b0316331480159061037457503360009081526001602052604090205460ff16155b1561039257604051634e76d0e360e11b815260040160405180910390fd5b60008054821515600160a01b0260ff60a01b199091161790556040517f813a96dd8899014cfb03844981ecae875122423482199678702de99354daf0cb906103df90831515815260200190565b60405180910390a150565b60008054600160a01b900460ff161561041657604051631edff7fd60e11b815260040160405180910390fd5b6003600061042a6080850160608601610dd3565b6001600160a01b0316815260208101919091526040016000205460ff166104645760405163514e24c360e11b815260040160405180910390fd5b60408281013560009081526004602090815290829020825160e081018452815460ff80821615801584526101009092046001600160a01b0316948301949094526001909201546001600160801b03811694820194909452600160801b840463ffffffff9081166060830152600160a01b8504166080820152600160c01b8404831660a0820152600160c81b909304909116151560c083015280610512575060208101516001600160a01b0316155b1561053057604051637f29cb5b60e01b815260040160405180910390fd5b80604001516001600160801b031683608001351115610562576040516358d8542f60e01b815260040160405180910390fd5b610573610100840160e08501610eb8565b67ffffffffffffffff1642111561059d57604051638727a7f960e01b815260040160405180910390fd5b608081015163ffffffff166105b860e0850160c08601610eb8565b6105c29190610ef8565b67ffffffffffffffff164211156105ec576040516301dbd10b60e21b815260040160405180910390fd5b60a081015160ff16600260006106056020870187610dd3565b6001600160a01b0316815260208101919091526040016000205460ff1610156106415760405163b988538360e01b815260040160405180910390fd5b606081015160009063ffffffff1660058261065f6020880188610dd3565b6001600160a01b03166001600160a01b031681526020019081526020016000206000866040013581526020019081526020016000205461069f9190610f20565b9050804210156106c25760405163aa9a98df60e01b815260040160405180910390fd5b8160c00151801561070257506106db6020850185610dd3565b6001600160a01b03166106f661014086016101208701610dd3565b6001600160a01b031614155b156107205760405163c0ee95bb60e01b815260040160405180910390fd5b42600560006107326020880188610dd3565b6001600160a01b0316815260208082019290925260409081016000908120888301803583529084529181209390935561076c918701610f4f565b600381111561077d5761077d610f39565b036108175760408401356107946020860186610dd3565b6001600160a01b03167f6192c1ee4e1c9a191a0c72f1bbb0a55b6447b47934933cdbc71d931928bc3a8b6107ce6040880160208901610f4f565b6107de6080890160608a01610dd3565b60808901356107f56101408b016101208c01610dd3565b6040516108059493929190610f70565b60405180910390a35050506080013590565b6020808301516001600160a01b031690632d3d8f2e9061083990870187610dd3565b6108496080880160608901610dd3565b608088013560a08901356108656101408b016101208c01610dd3565b60405160e087901b6001600160e01b03191681526001600160a01b039586166004820152938516602485015260448401929092526064830152909116608482015260a4016020604051808303816000875af11580156108c8573d6000803e3d6000fd5b505050506040513d601f19601f820116820180604052508101906108ec9190610fb9565b92508360a0013583101561091357604051634dc3a63d60e01b815260040160405180910390fd5b60408401356109256020860186610dd3565b6001600160a01b03167f6192c1ee4e1c9a191a0c72f1bbb0a55b6447b47934933cdbc71d931928bc3a8b61095f6040880160208901610f4f565b61096f6080890160608a01610dd3565b60808901356109866101408b016101208c01610dd3565b6040516109969493929190610f70565b60405180910390a35050919050565b6000546001600160a01b031633146109d0576040516330cd747160e01b815260040160405180910390fd5b6001600160a01b038216600081815260016020908152604091829020805460ff191685151590811790915591519182527f4a87ec76ba5cec1c5f52eeb2a5324a25ddf2218b53038bd9006449a0c7927f6791015b60405180910390a25050565b6000546001600160a01b03163314801590610a5b57503360009081526001602052604090205460ff16155b15610a7957604051634e76d0e360e11b815260040160405180910390fd5b6001600160a01b038216600081815260026020908152604091829020805460ff191660ff861690811790915591519182527f8dcabfb6f87a07ca3e489a5a86a8481a430e0ed744ce7e5b4b33b69758c510019101610a24565b6000546001600160a01b03163314801590610afd57503360009081526001602052604090205460ff16155b15610b1b57604051634e76d0e360e11b815260040160405180910390fd5b6001600160a01b038216600081815260036020908152604091829020805460ff191685151590811790915591519182527f9a8e30a8658b96ab3f034ce4bac6806278b4aee5880ccdd1ac35e4ed5bb31d239101610a24565b6000546001600160a01b03163314801590610b9e57503360009081526001602052604090205460ff16155b15610bbc57604051634e76d0e360e11b815260040160405180910390fd5b60008281526004602052604090208190610bd6828261102d565b50610be990506040820160208301610dd3565b6001600160a01b0316827ff2c61e40fcf1afacab78a6cd89e173e568751e2a7264238c360136ca0a41f8d9610c216020850185610d55565b610c316060860160408701611179565b610c416080870160608801611196565b610c5160a0880160808901611196565b610c6160c0890160a08a016111b3565b610c7160e08a0160c08b01610d55565b6040805196151587526001600160801b03909516602087015263ffffffff938416948601949094529116606084015260ff166080830152151560a082015260c00160405180910390a35050565b6000546001600160a01b03163314610ce9576040516330cd747160e01b815260040160405180910390fd5b600080546040516001600160a01b03808516939216917f8934ce4adea8d9ce0d714d2c22b86790e41b7731c84b926fbbdc1d40ff6533c991a3600080546001600160a01b0319166001600160a01b0392909216919091179055565b8015158114610d5257600080fd5b50565b600060208284031215610d6757600080fd5b8135610d7281610d44565b9392505050565b60006101408284031215610d8c57600080fd5b50919050565b6001600160a01b0381168114610d5257600080fd5b60008060408385031215610dba57600080fd5b8235610dc581610d92565b946020939093013593505050565b600060208284031215610de557600080fd5b8135610d7281610d92565b60008060408385031215610e0357600080fd5b8235610e0e81610d92565b91506020830135610e1e81610d44565b809150509250929050565b60ff81168114610d5257600080fd5b60008060408385031215610e4b57600080fd5b8235610e5681610d92565b91506020830135610e1e81610e29565b600080828403610100811215610e7b57600080fd5b8335925060e0601f1982011215610e9157600080fd5b506020830190509250929050565b600060208284031215610eb157600080fd5b5035919050565b600060208284031215610eca57600080fd5b813567ffffffffffffffff81168114610d7257600080fd5b634e487b7160e01b600052601160045260246000fd5b67ffffffffffffffff818116838216019080821115610f1957610f19610ee2565b5092915050565b80820180821115610f3357610f33610ee2565b92915050565b634e487b7160e01b600052602160045260246000fd5b600060208284031215610f6157600080fd5b813560048110610d7257600080fd5b6080810160048610610f9257634e487b7160e01b600052602160045260246000fd5b9481526001600160a01b039384166020820152604081019290925290911660609091015290565b600060208284031215610fcb57600080fd5b5051919050565b60008135610f3381610d44565b6001600160801b0381168114610d5257600080fd5b60008135610f3381610fdf565b63ffffffff81168114610d5257600080fd5b60008135610f3381611001565b60008135610f3381610e29565b813561103881610d44565b815460ff19811691151560ff169182178355602084013561105881610d92565b6001600160a81b03199190911690911760089190911b610100600160a81b0316178155600181016110b461108e60408501610ff4565b82546fffffffffffffffffffffffffffffffff19166001600160801b0391909116178255565b6110e76110c360608501611013565b82805463ffffffff60801b191660809290921b63ffffffff60801b16919091179055565b61111a6110f660808501611013565b82805463ffffffff60a01b191660a09290921b63ffffffff60a01b16919091179055565b61114761112960a08501611020565b82805460ff60c01b191660c09290921b60ff60c01b16919091179055565b61117461115660c08501610fd2565b82805460ff60c81b191691151560c81b60ff60c81b16919091179055565b505050565b60006020828403121561118b57600080fd5b8135610d7281610fdf565b6000602082840312156111a857600080fd5b8135610d7281611001565b6000602082840312156111c557600080fd5b8135610d7281610e2956fea2646970667358221220384080b892ce79d521cacc9e9583603aaef7482a9ed95fa0158956b6b45d88a064736f6c63430008180033","opcodes":"PUSH1 0x80 PUSH1 0x40 MSTORE CALLVALUE DUP1 ISZERO PUSH2 0x10 JUMPI PUSH1 0x0 DUP1 REVERT JUMPDEST POP PUSH1 0x40 MLOAD PUSH2 0x12C2 CODESIZE SUB DUP1 PUSH2 0x12C2 DUP4 CODECOPY DUP2 ADD PUSH1 0x40 DUP2 SWAP1 MSTORE PUSH2 0x2F SWAP2 PUSH2 0x7D JUMP JUMPDEST PUSH1 0x0 DUP1 SLOAD PUSH1 0x1 PUSH1 0x1 PUSH1 0xA0 SHL SUB NOT AND PUSH1 0x1 PUSH1 0x1 PUSH1 0xA0 SHL SUB DUP4 AND SWAP1 DUP2 OR DUP3 SSTORE PUSH1 0x40 MLOAD SWAP1 SWAP2 SWAP1 PUSH32 0x8934CE4ADEA8D9CE0D714D2C22B86790E41B7731C84B926FBBDC1D40FF6533C9 SWAP1 DUP3 SWAP1 LOG3 POP PUSH2 0xAD JUMP JUMPDEST PUSH1 0x0 PUSH1 0x20 DUP3 DUP5 SUB SLT ISZERO PUSH2 0x8F JUMPI PUSH1 0x0 DUP1 REVERT JUMPDEST DUP2 MLOAD PUSH1 0x1 PUSH1 0x1 PUSH1 0xA0 SHL SUB DUP2 AND DUP2 EQ PUSH2 0xA6 JUMPI PUSH1 0x0 DUP1 REVERT JUMPDEST SWAP4 SWAP3 POP POP POP JUMP JUMPDEST PUSH2 0x1206 DUP1 PUSH2 0xBC PUSH1 0x0 CODECOPY PUSH1 0x0 RETURN INVALID PUSH1 0x80 PUSH1 0x40 MSTORE CALLVALUE DUP1 ISZERO PUSH2 0x10 JUMPI PUSH1 0x0 DUP1 REVERT JUMPDEST POP PUSH1 0x4 CALLDATASIZE LT PUSH2 0xEA JUMPI PUSH1 0x0 CALLDATALOAD PUSH1 0xE0 SHR DUP1 PUSH4 0x8AAA2284 GT PUSH2 0x8C JUMPI DUP1 PUSH4 0xBF5D6260 GT PUSH2 0x66 JUMPI DUP1 PUSH4 0xBF5D6260 EQ PUSH2 0x235 JUMPI DUP1 PUSH4 0xD2AE4FA3 EQ PUSH2 0x248 JUMPI DUP1 PUSH4 0xE744092E EQ PUSH2 0x313 JUMPI DUP1 PUSH4 0xF2FDE38B EQ PUSH2 0x336 JUMPI PUSH1 0x0 DUP1 REVERT JUMPDEST DUP1 PUSH4 0x8AAA2284 EQ PUSH2 0x1D4 JUMPI DUP1 PUSH4 0x8DA5CB5B EQ PUSH2 0x1E7 JUMPI DUP1 PUSH4 0x9CA1BFBE EQ PUSH2 0x212 JUMPI PUSH1 0x0 DUP1 REVERT JUMPDEST DUP1 PUSH4 0x594B1119 GT PUSH2 0xC8 JUMPI DUP1 PUSH4 0x594B1119 EQ PUSH2 0x155 JUMPI DUP1 PUSH4 0x5C975ABB EQ PUSH2 0x18A JUMPI DUP1 PUSH4 0x5FFFEA45 EQ PUSH2 0x1AE JUMPI DUP1 PUSH4 0x648F4627 EQ PUSH2 0x1C1 JUMPI PUSH1 0x0 DUP1 REVERT JUMPDEST DUP1 PUSH4 0x16C38B3C EQ PUSH2 0xEF JUMPI DUP1 PUSH4 0x1F5F1162 EQ PUSH2 0x104 JUMPI DUP1 PUSH4 0x309A8D08 EQ PUSH2 0x12A JUMPI JUMPDEST PUSH1 0x0 DUP1 REVERT JUMPDEST PUSH2 0x102 PUSH2 0xFD CALLDATASIZE PUSH1 0x4 PUSH2 0xD55 JUMP JUMPDEST PUSH2 0x349 JUMP JUMPDEST STOP JUMPDEST PUSH2 0x117 PUSH2 0x112 CALLDATASIZE PUSH1 0x4 PUSH2 0xD79 JUMP JUMPDEST PUSH2 0x3EA JUMP JUMPDEST PUSH1 0x40 MLOAD SWAP1 DUP2 MSTORE PUSH1 0x20 ADD JUMPDEST PUSH1 0x40 MLOAD DUP1 SWAP2 SUB SWAP1 RETURN JUMPDEST PUSH2 0x117 PUSH2 0x138 CALLDATASIZE PUSH1 0x4 PUSH2 0xDA7 JUMP JUMPDEST PUSH1 0x5 PUSH1 0x20 SWAP1 DUP2 MSTORE PUSH1 0x0 SWAP3 DUP4 MSTORE PUSH1 0x40 DUP1 DUP5 KECCAK256 SWAP1 SWAP2 MSTORE SWAP1 DUP3 MSTORE SWAP1 KECCAK256 SLOAD DUP2 JUMP JUMPDEST PUSH2 0x178 PUSH2 0x163 CALLDATASIZE PUSH1 0x4 PUSH2 0xDD3 JUMP JUMPDEST PUSH1 0x2 PUSH1 0x20 MSTORE PUSH1 0x0 SWAP1 DUP2 MSTORE PUSH1 0x40 SWAP1 KECCAK256 SLOAD PUSH1 0xFF AND DUP2 JUMP JUMPDEST PUSH1 0x40 MLOAD PUSH1 0xFF SWAP1 SWAP2 AND DUP2 MSTORE PUSH1 0x20 ADD PUSH2 0x121 JUMP JUMPDEST PUSH1 0x0 SLOAD PUSH2 0x19E SWAP1 PUSH1 0x1 PUSH1 0xA0 SHL SWAP1 DIV PUSH1 0xFF AND DUP2 JUMP JUMPDEST PUSH1 0x40 MLOAD SWAP1 ISZERO ISZERO DUP2 MSTORE PUSH1 0x20 ADD PUSH2 0x121 JUMP JUMPDEST PUSH2 0x102 PUSH2 0x1BC CALLDATASIZE PUSH1 0x4 PUSH2 0xDF0 JUMP JUMPDEST PUSH2 0x9A5 JUMP JUMPDEST PUSH2 0x102 PUSH2 0x1CF CALLDATASIZE PUSH1 0x4 PUSH2 0xE38 JUMP JUMPDEST PUSH2 0xA30 JUMP JUMPDEST PUSH2 0x102 PUSH2 0x1E2 CALLDATASIZE PUSH1 0x4 PUSH2 0xDF0 JUMP JUMPDEST PUSH2 0xAD2 JUMP JUMPDEST PUSH1 0x0 SLOAD PUSH2 0x1FA SWAP1 PUSH1 0x1 PUSH1 0x1 PUSH1 0xA0 SHL SUB AND DUP2 JUMP JUMPDEST PUSH1 0x40 MLOAD PUSH1 0x1 PUSH1 0x1 PUSH1 0xA0 SHL SUB SWAP1 SWAP2 AND DUP2 MSTORE PUSH1 0x20 ADD PUSH2 0x121 JUMP JUMPDEST PUSH2 0x19E PUSH2 0x220 CALLDATASIZE PUSH1 0x4 PUSH2 0xDD3 JUMP JUMPDEST PUSH1 0x1 PUSH1 0x20 MSTORE PUSH1 0x0 SWAP1 DUP2 MSTORE PUSH1 0x40 SWAP1 KECCAK256 SLOAD PUSH1 0xFF AND DUP2 JUMP JUMPDEST PUSH2 0x102 PUSH2 0x243 CALLDATASIZE PUSH1 0x4 PUSH2 0xE66 JUMP JUMPDEST PUSH2 0xB73 JUMP JUMPDEST PUSH2 0x2BC PUSH2 0x256 CALLDATASIZE PUSH1 0x4 PUSH2 0xE9F JUMP JUMPDEST PUSH1 0x4 PUSH1 0x20 MSTORE PUSH1 0x0 SWAP1 DUP2 MSTORE PUSH1 0x40 SWAP1 KECCAK256 DUP1 SLOAD PUSH1 0x1 SWAP1 SWAP2 ADD SLOAD PUSH1 0xFF DUP1 DUP4 AND SWAP3 PUSH1 0x1 PUSH1 0x1 PUSH1 0xA0 SHL SUB PUSH2 0x100 SWAP1 SWAP2 DIV AND SWAP2 PUSH1 0x1 PUSH1 0x1 PUSH1 0x80 SHL SUB DUP2 AND SWAP2 PUSH4 0xFFFFFFFF PUSH1 0x1 PUSH1 0x80 SHL DUP4 DIV DUP2 AND SWAP3 PUSH1 0x1 PUSH1 0xA0 SHL DUP2 DIV SWAP1 SWAP2 AND SWAP2 PUSH1 0x1 PUSH1 0xC0 SHL DUP3 DIV DUP2 AND SWAP2 PUSH1 0x1 PUSH1 0xC8 SHL SWAP1 DIV AND DUP8 JUMP JUMPDEST PUSH1 0x40 DUP1 MLOAD SWAP8 ISZERO ISZERO DUP9 MSTORE PUSH1 0x1 PUSH1 0x1 PUSH1 0xA0 SHL SUB SWAP1 SWAP7 AND PUSH1 0x20 DUP9 ADD MSTORE PUSH1 0x1 PUSH1 0x1 PUSH1 0x80 SHL SUB SWAP1 SWAP5 AND SWAP5 DUP7 ADD SWAP5 SWAP1 SWAP5 MSTORE PUSH4 0xFFFFFFFF SWAP2 DUP3 AND PUSH1 0x60 DUP7 ADD MSTORE AND PUSH1 0x80 DUP5 ADD MSTORE PUSH1 0xFF SWAP1 SWAP2 AND PUSH1 0xA0 DUP4 ADD MSTORE ISZERO ISZERO PUSH1 0xC0 DUP3 ADD MSTORE PUSH1 0xE0 ADD PUSH2 0x121 JUMP JUMPDEST PUSH2 0x19E PUSH2 0x321 CALLDATASIZE PUSH1 0x4 PUSH2 0xDD3 JUMP JUMPDEST PUSH1 0x3 PUSH1 0x20 MSTORE PUSH1 0x0 SWAP1 DUP2 MSTORE PUSH1 0x40 SWAP1 KECCAK256 SLOAD PUSH1 0xFF AND DUP2 JUMP JUMPDEST PUSH2 0x102 PUSH2 0x344 CALLDATASIZE PUSH1 0x4 PUSH2 0xDD3 JUMP JUMPDEST PUSH2 0xCBE JUMP JUMPDEST PUSH1 0x0 SLOAD PUSH1 0x1 PUSH1 0x1 PUSH1 0xA0 SHL SUB AND CALLER EQ DUP1 ISZERO SWAP1 PUSH2 0x374 JUMPI POP CALLER PUSH1 0x0 SWAP1 DUP2 MSTORE PUSH1 0x1 PUSH1 0x20 MSTORE PUSH1 0x40 SWAP1 KECCAK256 SLOAD PUSH1 0xFF AND ISZERO JUMPDEST ISZERO PUSH2 0x392 JUMPI PUSH1 0x40 MLOAD PUSH4 0x4E76D0E3 PUSH1 0xE1 SHL DUP2 MSTORE PUSH1 0x4 ADD PUSH1 0x40 MLOAD DUP1 SWAP2 SUB SWAP1 REVERT JUMPDEST PUSH1 0x0 DUP1 SLOAD DUP3 ISZERO ISZERO PUSH1 0x1 PUSH1 0xA0 SHL MUL PUSH1 0xFF PUSH1 0xA0 SHL NOT SWAP1 SWAP2 AND OR SWAP1 SSTORE PUSH1 0x40 MLOAD PUSH32 0x813A96DD8899014CFB03844981ECAE875122423482199678702DE99354DAF0CB SWAP1 PUSH2 0x3DF SWAP1 DUP4 ISZERO ISZERO DUP2 MSTORE PUSH1 0x20 ADD SWAP1 JUMP JUMPDEST PUSH1 0x40 MLOAD DUP1 SWAP2 SUB SWAP1 LOG1 POP JUMP JUMPDEST PUSH1 0x0 DUP1 SLOAD PUSH1 0x1 PUSH1 0xA0 SHL SWAP1 DIV PUSH1 0xFF AND ISZERO PUSH2 0x416 JUMPI PUSH1 0x40 MLOAD PUSH4 0x1EDFF7FD PUSH1 0xE1 SHL DUP2 MSTORE PUSH1 0x4 ADD PUSH1 0x40 MLOAD DUP1 SWAP2 SUB SWAP1 REVERT JUMPDEST PUSH1 0x3 PUSH1 0x0 PUSH2 0x42A PUSH1 0x80 DUP6 ADD PUSH1 0x60 DUP7 ADD PUSH2 0xDD3 JUMP JUMPDEST PUSH1 0x1 PUSH1 0x1 PUSH1 0xA0 SHL SUB AND DUP2 MSTORE PUSH1 0x20 DUP2 ADD SWAP2 SWAP1 SWAP2 MSTORE PUSH1 0x40 ADD PUSH1 0x0 KECCAK256 SLOAD PUSH1 0xFF AND PUSH2 0x464 JUMPI PUSH1 0x40 MLOAD PUSH4 0x514E24C3 PUSH1 0xE1 SHL DUP2 MSTORE PUSH1 0x4 ADD PUSH1 0x40 MLOAD DUP1 SWAP2 SUB SWAP1 REVERT JUMPDEST PUSH1 0x40 DUP3 DUP2 ADD CALLDATALOAD PUSH1 0x0 SWAP1 DUP2 MSTORE PUSH1 0x4 PUSH1 0x20 SWAP1 DUP2 MSTORE SWAP1 DUP3 SWAP1 KECCAK256 DUP3 MLOAD PUSH1 0xE0 DUP2 ADD DUP5 MSTORE DUP2 SLOAD PUSH1 0xFF DUP1 DUP3 AND ISZERO DUP1 ISZERO DUP5 MSTORE PUSH2 0x100 SWAP1 SWAP3 DIV PUSH1 0x1 PUSH1 0x1 PUSH1 0xA0 SHL SUB AND SWAP5 DUP4 ADD SWAP5 SWAP1 SWAP5 MSTORE PUSH1 0x1 SWAP1 SWAP3 ADD SLOAD PUSH1 0x1 PUSH1 0x1 PUSH1 0x80 SHL SUB DUP2 AND SWAP5 DUP3 ADD SWAP5 SWAP1 SWAP5 MSTORE PUSH1 0x1 PUSH1 0x80 SHL DUP5 DIV PUSH4 0xFFFFFFFF SWAP1 DUP2 AND PUSH1 0x60 DUP4 ADD MSTORE PUSH1 0x1 PUSH1 0xA0 SHL DUP6 DIV AND PUSH1 0x80 DUP3 ADD MSTORE PUSH1 0x1 PUSH1 0xC0 SHL DUP5 DIV DUP4 AND PUSH1 0xA0 DUP3 ADD MSTORE PUSH1 0x1 PUSH1 0xC8 SHL SWAP1 SWAP4 DIV SWAP1 SWAP2 AND ISZERO ISZERO PUSH1 0xC0 DUP4 ADD MSTORE DUP1 PUSH2 0x512 JUMPI POP PUSH1 0x20 DUP2 ADD MLOAD PUSH1 0x1 PUSH1 0x1 PUSH1 0xA0 SHL SUB AND ISZERO JUMPDEST ISZERO PUSH2 0x530 JUMPI PUSH1 0x40 MLOAD PUSH4 0x7F29CB5B PUSH1 0xE0 SHL DUP2 MSTORE PUSH1 0x4 ADD PUSH1 0x40 MLOAD DUP1 SWAP2 SUB SWAP1 REVERT JUMPDEST DUP1 PUSH1 0x40 ADD MLOAD PUSH1 0x1 PUSH1 0x1 PUSH1 0x80 SHL SUB AND DUP4 PUSH1 0x80 ADD CALLDATALOAD GT ISZERO PUSH2 0x562 JUMPI PUSH1 0x40 MLOAD PUSH4 0x58D8542F PUSH1 0xE0 SHL DUP2 MSTORE PUSH1 0x4 ADD PUSH1 0x40 MLOAD DUP1 SWAP2 SUB SWAP1 REVERT JUMPDEST PUSH2 0x573 PUSH2 0x100 DUP5 ADD PUSH1 0xE0 DUP6 ADD PUSH2 0xEB8 JUMP JUMPDEST PUSH8 0xFFFFFFFFFFFFFFFF AND TIMESTAMP GT ISZERO PUSH2 0x59D JUMPI PUSH1 0x40 MLOAD PUSH4 0x8727A7F9 PUSH1 0xE0 SHL DUP2 MSTORE PUSH1 0x4 ADD PUSH1 0x40 MLOAD DUP1 SWAP2 SUB SWAP1 REVERT JUMPDEST PUSH1 0x80 DUP2 ADD MLOAD PUSH4 0xFFFFFFFF AND PUSH2 0x5B8 PUSH1 0xE0 DUP6 ADD PUSH1 0xC0 DUP7 ADD PUSH2 0xEB8 JUMP JUMPDEST PUSH2 0x5C2 SWAP2 SWAP1 PUSH2 0xEF8 JUMP JUMPDEST PUSH8 0xFFFFFFFFFFFFFFFF AND TIMESTAMP GT ISZERO PUSH2 0x5EC JUMPI PUSH1 0x40 MLOAD PUSH4 0x1DBD10B PUSH1 0xE2 SHL DUP2 MSTORE PUSH1 0x4 ADD PUSH1 0x40 MLOAD DUP1 SWAP2 SUB SWAP1 REVERT JUMPDEST PUSH1 0xA0 DUP2 ADD MLOAD PUSH1 0xFF AND PUSH1 0x2 PUSH1 0x0 PUSH2 0x605 PUSH1 0x20 DUP8 ADD DUP8 PUSH2 0xDD3 JUMP JUMPDEST PUSH1 0x1 PUSH1 0x1 PUSH1 0xA0 SHL SUB AND DUP2 MSTORE PUSH1 0x20 DUP2 ADD SWAP2 SWAP1 SWAP2 MSTORE PUSH1 0x40 ADD PUSH1 0x0 KECCAK256 SLOAD PUSH1 0xFF AND LT ISZERO PUSH2 0x641 JUMPI PUSH1 0x40 MLOAD PUSH4 0xB9885383 PUSH1 0xE0 SHL DUP2 MSTORE PUSH1 0x4 ADD PUSH1 0x40 MLOAD DUP1 SWAP2 SUB SWAP1 REVERT JUMPDEST PUSH1 0x60 DUP2 ADD MLOAD PUSH1 0x0 SWAP1 PUSH4 0xFFFFFFFF AND PUSH1 0x5 DUP3 PUSH2 0x65F PUSH1 0x20 DUP9 ADD DUP9 PUSH2 0xDD3 JUMP JUMPDEST PUSH1 0x1 PUSH1 0x1 PUSH1 0xA0 SHL SUB AND PUSH1 0x1 PUSH1 0x1 PUSH1 0xA0 SHL SUB AND DUP2 MSTORE PUSH1 0x20 ADD SWAP1 DUP2 MSTORE PUSH1 0x20 ADD PUSH1 0x0 KECCAK256 PUSH1 0x0 DUP7 PUSH1 0x40 ADD CALLDATALOAD DUP2 MSTORE PUSH1 0x20 ADD SWAP1 DUP2 MSTORE PUSH1 0x20 ADD PUSH1 0x0 KECCAK256 SLOAD PUSH2 0x69F SWAP2 SWAP1 PUSH2 0xF20 JUMP JUMPDEST SWAP1 POP DUP1 TIMESTAMP LT ISZERO PUSH2 0x6C2 JUMPI PUSH1 0x40 MLOAD PUSH4 0xAA9A98DF PUSH1 0xE0 SHL DUP2 MSTORE PUSH1 0x4 ADD PUSH1 0x40 MLOAD DUP1 SWAP2 SUB SWAP1 REVERT JUMPDEST DUP2 PUSH1 0xC0 ADD MLOAD DUP1 ISZERO PUSH2 0x702 JUMPI POP PUSH2 0x6DB PUSH1 0x20 DUP6 ADD DUP6 PUSH2 0xDD3 JUMP JUMPDEST PUSH1 0x1 PUSH1 0x1 PUSH1 0xA0 SHL SUB AND PUSH2 0x6F6 PUSH2 0x140 DUP7 ADD PUSH2 0x120 DUP8 ADD PUSH2 0xDD3 JUMP JUMPDEST PUSH1 0x1 PUSH1 0x1 PUSH1 0xA0 SHL SUB AND EQ ISZERO JUMPDEST ISZERO PUSH2 0x720 JUMPI PUSH1 0x40 MLOAD PUSH4 0xC0EE95BB PUSH1 0xE0 SHL DUP2 MSTORE PUSH1 0x4 ADD PUSH1 0x40 MLOAD DUP1 SWAP2 SUB SWAP1 REVERT JUMPDEST TIMESTAMP PUSH1 0x5 PUSH1 0x0 PUSH2 0x732 PUSH1 0x20 DUP9 ADD DUP9 PUSH2 0xDD3 JUMP JUMPDEST PUSH1 0x1 PUSH1 0x1 PUSH1 0xA0 SHL SUB AND DUP2 MSTORE PUSH1 0x20 DUP1 DUP3 ADD SWAP3 SWAP1 SWAP3 MSTORE PUSH1 0x40 SWAP1 DUP2 ADD PUSH1 0x0 SWAP1 DUP2 KECCAK256 DUP9 DUP4 ADD DUP1 CALLDATALOAD DUP4 MSTORE SWAP1 DUP5 MSTORE SWAP2 DUP2 KECCAK256 SWAP4 SWAP1 SWAP4 SSTORE PUSH2 0x76C SWAP2 DUP8 ADD PUSH2 0xF4F JUMP JUMPDEST PUSH1 0x3 DUP2 GT ISZERO PUSH2 0x77D JUMPI PUSH2 0x77D PUSH2 0xF39 JUMP JUMPDEST SUB PUSH2 0x817 JUMPI PUSH1 0x40 DUP5 ADD CALLDATALOAD PUSH2 0x794 PUSH1 0x20 DUP7 ADD DUP7 PUSH2 0xDD3 JUMP JUMPDEST PUSH1 0x1 PUSH1 0x1 PUSH1 0xA0 SHL SUB AND PUSH32 0x6192C1EE4E1C9A191A0C72F1BBB0A55B6447B47934933CDBC71D931928BC3A8B PUSH2 0x7CE PUSH1 0x40 DUP9 ADD PUSH1 0x20 DUP10 ADD PUSH2 0xF4F JUMP JUMPDEST PUSH2 0x7DE PUSH1 0x80 DUP10 ADD PUSH1 0x60 DUP11 ADD PUSH2 0xDD3 JUMP JUMPDEST PUSH1 0x80 DUP10 ADD CALLDATALOAD PUSH2 0x7F5 PUSH2 0x140 DUP12 ADD PUSH2 0x120 DUP13 ADD PUSH2 0xDD3 JUMP JUMPDEST PUSH1 0x40 MLOAD PUSH2 0x805 SWAP5 SWAP4 SWAP3 SWAP2 SWAP1 PUSH2 0xF70 JUMP JUMPDEST PUSH1 0x40 MLOAD DUP1 SWAP2 SUB SWAP1 LOG3 POP POP POP PUSH1 0x80 ADD CALLDATALOAD SWAP1 JUMP JUMPDEST PUSH1 0x20 DUP1 DUP4 ADD MLOAD PUSH1 0x1 PUSH1 0x1 PUSH1 0xA0 SHL SUB AND SWAP1 PUSH4 0x2D3D8F2E SWAP1 PUSH2 0x839 SWAP1 DUP8 ADD DUP8 PUSH2 0xDD3 JUMP JUMPDEST PUSH2 0x849 PUSH1 0x80 DUP9 ADD PUSH1 0x60 DUP10 ADD PUSH2 0xDD3 JUMP JUMPDEST PUSH1 0x80 DUP9 ADD CALLDATALOAD PUSH1 0xA0 DUP10 ADD CALLDATALOAD PUSH2 0x865 PUSH2 0x140 DUP12 ADD PUSH2 0x120 DUP13 ADD PUSH2 0xDD3 JUMP JUMPDEST PUSH1 0x40 MLOAD PUSH1 0xE0 DUP8 SWAP1 SHL PUSH1 0x1 PUSH1 0x1 PUSH1 0xE0 SHL SUB NOT AND DUP2 MSTORE PUSH1 0x1 PUSH1 0x1 PUSH1 0xA0 SHL SUB SWAP6 DUP7 AND PUSH1 0x4 DUP3 ADD MSTORE SWAP4 DUP6 AND PUSH1 0x24 DUP6 ADD MSTORE PUSH1 0x44 DUP5 ADD SWAP3 SWAP1 SWAP3 MSTORE PUSH1 0x64 DUP4 ADD MSTORE SWAP1 SWAP2 AND PUSH1 0x84 DUP3 ADD MSTORE PUSH1 0xA4 ADD PUSH1 0x20 PUSH1 0x40 MLOAD DUP1 DUP4 SUB DUP2 PUSH1 0x0 DUP8 GAS CALL ISZERO DUP1 ISZERO PUSH2 0x8C8 JUMPI RETURNDATASIZE PUSH1 0x0 DUP1 RETURNDATACOPY RETURNDATASIZE PUSH1 0x0 REVERT JUMPDEST POP POP POP POP PUSH1 0x40 MLOAD RETURNDATASIZE PUSH1 0x1F NOT PUSH1 0x1F DUP3 ADD AND DUP3 ADD DUP1 PUSH1 0x40 MSTORE POP DUP2 ADD SWAP1 PUSH2 0x8EC SWAP2 SWAP1 PUSH2 0xFB9 JUMP JUMPDEST SWAP3 POP DUP4 PUSH1 0xA0 ADD CALLDATALOAD DUP4 LT ISZERO PUSH2 0x913 JUMPI PUSH1 0x40 MLOAD PUSH4 0x4DC3A63D PUSH1 0xE0 SHL DUP2 MSTORE PUSH1 0x4 ADD PUSH1 0x40 MLOAD DUP1 SWAP2 SUB SWAP1 REVERT JUMPDEST PUSH1 0x40 DUP5 ADD CALLDATALOAD PUSH2 0x925 PUSH1 0x20 DUP7 ADD DUP7 PUSH2 0xDD3 JUMP JUMPDEST PUSH1 0x1 PUSH1 0x1 PUSH1 0xA0 SHL SUB AND PUSH32 0x6192C1EE4E1C9A191A0C72F1BBB0A55B6447B47934933CDBC71D931928BC3A8B PUSH2 0x95F PUSH1 0x40 DUP9 ADD PUSH1 0x20 DUP10 ADD PUSH2 0xF4F JUMP JUMPDEST PUSH2 0x96F PUSH1 0x80 DUP10 ADD PUSH1 0x60 DUP11 ADD PUSH2 0xDD3 JUMP JUMPDEST PUSH1 0x80 DUP10 ADD CALLDATALOAD PUSH2 0x986 PUSH2 0x140 DUP12 ADD PUSH2 0x120 DUP13 ADD PUSH2 0xDD3 JUMP JUMPDEST PUSH1 0x40 MLOAD PUSH2 0x996 SWAP5 SWAP4 SWAP3 SWAP2 SWAP1 PUSH2 0xF70 JUMP JUMPDEST PUSH1 0x40 MLOAD DUP1 SWAP2 SUB SWAP1 LOG3 POP POP SWAP2 SWAP1 POP JUMP JUMPDEST PUSH1 0x0 SLOAD PUSH1 0x1 PUSH1 0x1 PUSH1 0xA0 SHL SUB AND CALLER EQ PUSH2 0x9D0 JUMPI PUSH1 0x40 MLOAD PUSH4 0x30CD7471 PUSH1 0xE0 SHL DUP2 MSTORE PUSH1 0x4 ADD PUSH1 0x40 MLOAD DUP1 SWAP2 SUB SWAP1 REVERT JUMPDEST PUSH1 0x1 PUSH1 0x1 PUSH1 0xA0 SHL SUB DUP3 AND PUSH1 0x0 DUP2 DUP2 MSTORE PUSH1 0x1 PUSH1 0x20 SWAP1 DUP2 MSTORE PUSH1 0x40 SWAP2 DUP3 SWAP1 KECCAK256 DUP1 SLOAD PUSH1 0xFF NOT AND DUP6 ISZERO ISZERO SWAP1 DUP2 OR SWAP1 SWAP2 SSTORE SWAP2 MLOAD SWAP2 DUP3 MSTORE PUSH32 0x4A87EC76BA5CEC1C5F52EEB2A5324A25DDF2218B53038BD9006449A0C7927F67 SWAP2 ADD JUMPDEST PUSH1 0x40 MLOAD DUP1 SWAP2 SUB SWAP1 LOG2 POP POP JUMP JUMPDEST PUSH1 0x0 SLOAD PUSH1 0x1 PUSH1 0x1 PUSH1 0xA0 SHL SUB AND CALLER EQ DUP1 ISZERO SWAP1 PUSH2 0xA5B JUMPI POP CALLER PUSH1 0x0 SWAP1 DUP2 MSTORE PUSH1 0x1 PUSH1 0x20 MSTORE PUSH1 0x40 SWAP1 KECCAK256 SLOAD PUSH1 0xFF AND ISZERO JUMPDEST ISZERO PUSH2 0xA79 JUMPI PUSH1 0x40 MLOAD PUSH4 0x4E76D0E3 PUSH1 0xE1 SHL DUP2 MSTORE PUSH1 0x4 ADD PUSH1 0x40 MLOAD DUP1 SWAP2 SUB SWAP1 REVERT JUMPDEST PUSH1 0x1 PUSH1 0x1 PUSH1 0xA0 SHL SUB DUP3 AND PUSH1 0x0 DUP2 DUP2 MSTORE PUSH1 0x2 PUSH1 0x20 SWAP1 DUP2 MSTORE PUSH1 0x40 SWAP2 DUP3 SWAP1 KECCAK256 DUP1 SLOAD PUSH1 0xFF NOT AND PUSH1 0xFF DUP7 AND SWAP1 DUP2 OR SWAP1 SWAP2 SSTORE SWAP2 MLOAD SWAP2 DUP3 MSTORE PUSH32 0x8DCABFB6F87A07CA3E489A5A86A8481A430E0ED744CE7E5B4B33B69758C51001 SWAP2 ADD PUSH2 0xA24 JUMP JUMPDEST PUSH1 0x0 SLOAD PUSH1 0x1 PUSH1 0x1 PUSH1 0xA0 SHL SUB AND CALLER EQ DUP1 ISZERO SWAP1 PUSH2 0xAFD JUMPI POP CALLER PUSH1 0x0 SWAP1 DUP2 MSTORE PUSH1 0x1 PUSH1 0x20 MSTORE PUSH1 0x40 SWAP1 KECCAK256 SLOAD PUSH1 0xFF AND ISZERO JUMPDEST ISZERO PUSH2 0xB1B JUMPI PUSH1 0x40 MLOAD PUSH4 0x4E76D0E3 PUSH1 0xE1 SHL DUP2 MSTORE PUSH1 0x4 ADD PUSH1 0x40 MLOAD DUP1 SWAP2 SUB SWAP1 REVERT JUMPDEST PUSH1 0x1 PUSH1 0x1 PUSH1 0xA0 SHL SUB DUP3 AND PUSH1 0x0 DUP2 DUP2 MSTORE PUSH1 0x3 PUSH1 0x20 SWAP1 DUP2 MSTORE PUSH1 0x40 SWAP2 DUP3 SWAP1 KECCAK256 DUP1 SLOAD PUSH1 0xFF NOT AND DUP6 ISZERO ISZERO SWAP1 DUP2 OR SWAP1 SWAP2 SSTORE SWAP2 MLOAD SWAP2 DUP3 MSTORE PUSH32 0x9A8E30A8658B96AB3F034CE4BAC6806278B4AEE5880CCDD1AC35E4ED5BB31D23 SWAP2 ADD PUSH2 0xA24 JUMP JUMPDEST PUSH1 0x0 SLOAD PUSH1 0x1 PUSH1 0x1 PUSH1 0xA0 SHL SUB AND CALLER EQ DUP1 ISZERO SWAP1 PUSH2 0xB9E JUMPI POP CALLER PUSH1 0x0 SWAP1 DUP2 MSTORE PUSH1 0x1 PUSH1 0x20 MSTORE PUSH1 0x40 SWAP1 KECCAK256 SLOAD PUSH1 0xFF AND ISZERO JUMPDEST ISZERO PUSH2 0xBBC JUMPI PUSH1 0x40 MLOAD PUSH4 0x4E76D0E3 PUSH1 0xE1 SHL DUP2 MSTORE PUSH1 0x4 ADD PUSH1 0x40 MLOAD DUP1 SWAP2 SUB SWAP1 REVERT JUMPDEST PUSH1 0x0 DUP3 DUP2 MSTORE PUSH1 0x4 PUSH1 0x20 MSTORE PUSH1 0x40 SWAP1 KECCAK256 DUP2 SWAP1 PUSH2 0xBD6 DUP3 DUP3 PUSH2 0x102D JUMP JUMPDEST POP PUSH2 0xBE9 SWAP1 POP PUSH1 0x40 DUP3 ADD PUSH1 0x20 DUP4 ADD PUSH2 0xDD3 JUMP JUMPDEST PUSH1 0x1 PUSH1 0x1 PUSH1 0xA0 SHL SUB AND DUP3 PUSH32 0xF2C61E40FCF1AFACAB78A6CD89E173E568751E2A7264238C360136CA0A41F8D9 PUSH2 0xC21 PUSH1 0x20 DUP6 ADD DUP6 PUSH2 0xD55 JUMP JUMPDEST PUSH2 0xC31 PUSH1 0x60 DUP7 ADD PUSH1 0x40 DUP8 ADD PUSH2 0x1179 JUMP JUMPDEST PUSH2 0xC41 PUSH1 0x80 DUP8 ADD PUSH1 0x60 DUP9 ADD PUSH2 0x1196 JUMP JUMPDEST PUSH2 0xC51 PUSH1 0xA0 DUP9 ADD PUSH1 0x80 DUP10 ADD PUSH2 0x1196 JUMP JUMPDEST PUSH2 0xC61 PUSH1 0xC0 DUP10 ADD PUSH1 0xA0 DUP11 ADD PUSH2 0x11B3 JUMP JUMPDEST PUSH2 0xC71 PUSH1 0xE0 DUP11 ADD PUSH1 0xC0 DUP12 ADD PUSH2 0xD55 JUMP JUMPDEST PUSH1 0x40 DUP1 MLOAD SWAP7 ISZERO ISZERO DUP8 MSTORE PUSH1 0x1 PUSH1 0x1 PUSH1 0x80 SHL SUB SWAP1 SWAP6 AND PUSH1 0x20 DUP8 ADD MSTORE PUSH4 0xFFFFFFFF SWAP4 DUP5 AND SWAP5 DUP7 ADD SWAP5 SWAP1 SWAP5 MSTORE SWAP2 AND PUSH1 0x60 DUP5 ADD MSTORE PUSH1 0xFF AND PUSH1 0x80 DUP4 ADD MSTORE ISZERO ISZERO PUSH1 0xA0 DUP3 ADD MSTORE PUSH1 0xC0 ADD PUSH1 0x40 MLOAD DUP1 SWAP2 SUB SWAP1 LOG3 POP POP JUMP JUMPDEST PUSH1 0x0 SLOAD PUSH1 0x1 PUSH1 0x1 PUSH1 0xA0 SHL SUB AND CALLER EQ PUSH2 0xCE9 JUMPI PUSH1 0x40 MLOAD PUSH4 0x30CD7471 PUSH1 0xE0 SHL DUP2 MSTORE PUSH1 0x4 ADD PUSH1 0x40 MLOAD DUP1 SWAP2 SUB SWAP1 REVERT JUMPDEST PUSH1 0x0 DUP1 SLOAD PUSH1 0x40 MLOAD PUSH1 0x1 PUSH1 0x1 PUSH1 0xA0 SHL SUB DUP1 DUP6 AND SWAP4 SWAP3 AND SWAP2 PUSH32 0x8934CE4ADEA8D9CE0D714D2C22B86790E41B7731C84B926FBBDC1D40FF6533C9 SWAP2 LOG3 PUSH1 0x0 DUP1 SLOAD PUSH1 0x1 PUSH1 0x1 PUSH1 0xA0 SHL SUB NOT AND PUSH1 0x1 PUSH1 0x1 PUSH1 0xA0 SHL SUB SWAP3 SWAP1 SWAP3 AND SWAP2 SWAP1 SWAP2 OR SWAP1 SSTORE JUMP JUMPDEST DUP1 ISZERO ISZERO DUP2 EQ PUSH2 0xD52 JUMPI PUSH1 0x0 DUP1 REVERT JUMPDEST POP JUMP JUMPDEST PUSH1 0x0 PUSH1 0x20 DUP3 DUP5 SUB SLT ISZERO PUSH2 0xD67 JUMPI PUSH1 0x0 DUP1 REVERT JUMPDEST DUP2 CALLDATALOAD PUSH2 0xD72 DUP2 PUSH2 0xD44 JUMP JUMPDEST SWAP4 SWAP3 POP POP POP JUMP JUMPDEST PUSH1 0x0 PUSH2 0x140 DUP3 DUP5 SUB SLT ISZERO PUSH2 0xD8C JUMPI PUSH1 0x0 DUP1 REVERT JUMPDEST POP SWAP2 SWAP1 POP JUMP JUMPDEST PUSH1 0x1 PUSH1 0x1 PUSH1 0xA0 SHL SUB DUP2 AND DUP2 EQ PUSH2 0xD52 JUMPI PUSH1 0x0 DUP1 REVERT JUMPDEST PUSH1 0x0 DUP1 PUSH1 0x40 DUP4 DUP6 SUB SLT ISZERO PUSH2 0xDBA JUMPI PUSH1 0x0 DUP1 REVERT JUMPDEST DUP3 CALLDATALOAD PUSH2 0xDC5 DUP2 PUSH2 0xD92 JUMP JUMPDEST SWAP5 PUSH1 0x20 SWAP4 SWAP1 SWAP4 ADD CALLDATALOAD SWAP4 POP POP POP JUMP JUMPDEST PUSH1 0x0 PUSH1 0x20 DUP3 DUP5 SUB SLT ISZERO PUSH2 0xDE5 JUMPI PUSH1 0x0 DUP1 REVERT JUMPDEST DUP2 CALLDATALOAD PUSH2 0xD72 DUP2 PUSH2 0xD92 JUMP JUMPDEST PUSH1 0x0 DUP1 PUSH1 0x40 DUP4 DUP6 SUB SLT ISZERO PUSH2 0xE03 JUMPI PUSH1 0x0 DUP1 REVERT JUMPDEST DUP3 CALLDATALOAD PUSH2 0xE0E DUP2 PUSH2 0xD92 JUMP JUMPDEST SWAP2 POP PUSH1 0x20 DUP4 ADD CALLDATALOAD PUSH2 0xE1E DUP2 PUSH2 0xD44 JUMP JUMPDEST DUP1 SWAP2 POP POP SWAP3 POP SWAP3 SWAP1 POP JUMP JUMPDEST PUSH1 0xFF DUP2 AND DUP2 EQ PUSH2 0xD52 JUMPI PUSH1 0x0 DUP1 REVERT JUMPDEST PUSH1 0x0 DUP1 PUSH1 0x40 DUP4 DUP6 SUB SLT ISZERO PUSH2 0xE4B JUMPI PUSH1 0x0 DUP1 REVERT JUMPDEST DUP3 CALLDATALOAD PUSH2 0xE56 DUP2 PUSH2 0xD92 JUMP JUMPDEST SWAP2 POP PUSH1 0x20 DUP4 ADD CALLDATALOAD PUSH2 0xE1E DUP2 PUSH2 0xE29 JUMP JUMPDEST PUSH1 0x0 DUP1 DUP3 DUP5 SUB PUSH2 0x100 DUP2 SLT ISZERO PUSH2 0xE7B JUMPI PUSH1 0x0 DUP1 REVERT JUMPDEST DUP4 CALLDATALOAD SWAP3 POP PUSH1 0xE0 PUSH1 0x1F NOT DUP3 ADD SLT ISZERO PUSH2 0xE91 JUMPI PUSH1 0x0 DUP1 REVERT JUMPDEST POP PUSH1 0x20 DUP4 ADD SWAP1 POP SWAP3 POP SWAP3 SWAP1 POP JUMP JUMPDEST PUSH1 0x0 PUSH1 0x20 DUP3 DUP5 SUB SLT ISZERO PUSH2 0xEB1 JUMPI PUSH1 0x0 DUP1 REVERT JUMPDEST POP CALLDATALOAD SWAP2 SWAP1 POP JUMP JUMPDEST PUSH1 0x0 PUSH1 0x20 DUP3 DUP5 SUB SLT ISZERO PUSH2 0xECA JUMPI PUSH1 0x0 DUP1 REVERT JUMPDEST DUP2 CALLDATALOAD PUSH8 0xFFFFFFFFFFFFFFFF DUP2 AND DUP2 EQ PUSH2 0xD72 JUMPI PUSH1 0x0 DUP1 REVERT JUMPDEST PUSH4 0x4E487B71 PUSH1 0xE0 SHL PUSH1 0x0 MSTORE PUSH1 0x11 PUSH1 0x4 MSTORE PUSH1 0x24 PUSH1 0x0 REVERT JUMPDEST PUSH8 0xFFFFFFFFFFFFFFFF DUP2 DUP2 AND DUP4 DUP3 AND ADD SWAP1 DUP1 DUP3 GT ISZERO PUSH2 0xF19 JUMPI PUSH2 0xF19 PUSH2 0xEE2 JUMP JUMPDEST POP SWAP3 SWAP2 POP POP JUMP JUMPDEST DUP1 DUP3 ADD DUP1 DUP3 GT ISZERO PUSH2 0xF33 JUMPI PUSH2 0xF33 PUSH2 0xEE2 JUMP JUMPDEST SWAP3 SWAP2 POP POP JUMP JUMPDEST PUSH4 0x4E487B71 PUSH1 0xE0 SHL PUSH1 0x0 MSTORE PUSH1 0x21 PUSH1 0x4 MSTORE PUSH1 0x24 PUSH1 0x0 REVERT JUMPDEST PUSH1 0x0 PUSH1 0x20 DUP3 DUP5 SUB SLT ISZERO PUSH2 0xF61 JUMPI PUSH1 0x0 DUP1 REVERT JUMPDEST DUP2 CALLDATALOAD PUSH1 0x4 DUP2 LT PUSH2 0xD72 JUMPI PUSH1 0x0 DUP1 REVERT JUMPDEST PUSH1 0x80 DUP2 ADD PUSH1 0x4 DUP7 LT PUSH2 0xF92 JUMPI PUSH4 0x4E487B71 PUSH1 0xE0 SHL PUSH1 0x0 MSTORE PUSH1 0x21 PUSH1 0x4 MSTORE PUSH1 0x24 PUSH1 0x0 REVERT JUMPDEST SWAP5 DUP2 MSTORE PUSH1 0x1 PUSH1 0x1 PUSH1 0xA0 SHL SUB SWAP4 DUP5 AND PUSH1 0x20 DUP3 ADD MSTORE PUSH1 0x40 DUP2 ADD SWAP3 SWAP1 SWAP3 MSTORE SWAP1 SWAP2 AND PUSH1 0x60 SWAP1 SWAP2 ADD MSTORE SWAP1 JUMP JUMPDEST PUSH1 0x0 PUSH1 0x20 DUP3 DUP5 SUB SLT ISZERO PUSH2 0xFCB JUMPI PUSH1 0x0 DUP1 REVERT JUMPDEST POP MLOAD SWAP2 SWAP1 POP JUMP JUMPDEST PUSH1 0x0 DUP2 CALLDATALOAD PUSH2 0xF33 DUP2 PUSH2 0xD44 JUMP JUMPDEST PUSH1 0x1 PUSH1 0x1 PUSH1 0x80 SHL SUB DUP2 AND DUP2 EQ PUSH2 0xD52 JUMPI PUSH1 0x0 DUP1 REVERT JUMPDEST PUSH1 0x0 DUP2 CALLDATALOAD PUSH2 0xF33 DUP2 PUSH2 0xFDF JUMP JUMPDEST PUSH4 0xFFFFFFFF DUP2 AND DUP2 EQ PUSH2 0xD52 JUMPI PUSH1 0x0 DUP1 REVERT JUMPDEST PUSH1 0x0 DUP2 CALLDATALOAD PUSH2 0xF33 DUP2 PUSH2 0x1001 JUMP JUMPDEST PUSH1 0x0 DUP2 CALLDATALOAD PUSH2 0xF33 DUP2 PUSH2 0xE29 JUMP JUMPDEST DUP2 CALLDATALOAD PUSH2 0x1038 DUP2 PUSH2 0xD44 JUMP JUMPDEST DUP2 SLOAD PUSH1 0xFF NOT DUP2 AND SWAP2 ISZERO ISZERO PUSH1 0xFF AND SWAP2 DUP3 OR DUP4 SSTORE PUSH1 0x20 DUP5 ADD CALLDATALOAD PUSH2 0x1058 DUP2 PUSH2 0xD92 JUMP JUMPDEST PUSH1 0x1 PUSH1 0x1 PUSH1 0xA8 SHL SUB NOT SWAP2 SWAP1 SWAP2 AND SWAP1 SWAP2 OR PUSH1 0x8 SWAP2 SWAP1 SWAP2 SHL PUSH2 0x100 PUSH1 0x1 PUSH1 0xA8 SHL SUB AND OR DUP2 SSTORE PUSH1 0x1 DUP2 ADD PUSH2 0x10B4 PUSH2 0x108E PUSH1 0x40 DUP6 ADD PUSH2 0xFF4 JUMP JUMPDEST DUP3 SLOAD PUSH16 0xFFFFFFFFFFFFFFFFFFFFFFFFFFFFFFFF NOT AND PUSH1 0x1 PUSH1 0x1 PUSH1 0x80 SHL SUB SWAP2 SWAP1 SWAP2 AND OR DUP3 SSTORE JUMP JUMPDEST PUSH2 0x10E7 PUSH2 0x10C3 PUSH1 0x60 DUP6 ADD PUSH2 0x1013 JUMP JUMPDEST DUP3 DUP1 SLOAD PUSH4 0xFFFFFFFF PUSH1 0x80 SHL NOT AND PUSH1 0x80 SWAP3 SWAP1 SWAP3 SHL PUSH4 0xFFFFFFFF PUSH1 0x80 SHL AND SWAP2 SWAP1 SWAP2 OR SWAP1 SSTORE JUMP JUMPDEST PUSH2 0x111A PUSH2 0x10F6 PUSH1 0x80 DUP6 ADD PUSH2 0x1013 JUMP JUMPDEST DUP3 DUP1 SLOAD PUSH4 0xFFFFFFFF PUSH1 0xA0 SHL NOT AND PUSH1 0xA0 SWAP3 SWAP1 SWAP3 SHL PUSH4 0xFFFFFFFF PUSH1 0xA0 SHL AND SWAP2 SWAP1 SWAP2 OR SWAP1 SSTORE JUMP JUMPDEST PUSH2 0x1147 PUSH2 0x1129 PUSH1 0xA0 DUP6 ADD PUSH2 0x1020 JUMP JUMPDEST DUP3 DUP1 SLOAD PUSH1 0xFF PUSH1 0xC0 SHL NOT AND PUSH1 0xC0 SWAP3 SWAP1 SWAP3 SHL PUSH1 0xFF PUSH1 0xC0 SHL AND SWAP2 SWAP1 SWAP2 OR SWAP1 SSTORE JUMP JUMPDEST PUSH2 0x1174 PUSH2 0x1156 PUSH1 0xC0 DUP6 ADD PUSH2 0xFD2 JUMP JUMPDEST DUP3 DUP1 SLOAD PUSH1 0xFF PUSH1 0xC8 SHL NOT AND SWAP2 ISZERO ISZERO PUSH1 0xC8 SHL PUSH1 0xFF PUSH1 0xC8 SHL AND SWAP2 SWAP1 SWAP2 OR SWAP1 SSTORE JUMP JUMPDEST POP POP POP JUMP JUMPDEST PUSH1 0x0 PUSH1 0x20 DUP3 DUP5 SUB SLT ISZERO PUSH2 0x118B JUMPI PUSH1 0x0 DUP1 REVERT JUMPDEST DUP2 CALLDATALOAD PUSH2 0xD72 DUP2 PUSH2 0xFDF JUMP JUMPDEST PUSH1 0x0 PUSH1 0x20 DUP3 DUP5 SUB SLT ISZERO PUSH2 0x11A8 JUMPI PUSH1 0x0 DUP1 REVERT JUMPDEST DUP2 CALLDATALOAD PUSH2 0xD72 DUP2 PUSH2 0x1001 JUMP JUMPDEST PUSH1 0x0 PUSH1 0x20 DUP3 DUP5 SUB SLT ISZERO PUSH2 0x11C5 JUMPI PUSH1 0x0 DUP1 REVERT JUMPDEST DUP2 CALLDATALOAD PUSH2 0xD72 DUP2 PUSH2 0xE29 JUMP INVALID LOG2 PUSH5 0x6970667358 0x22 SLT KECCAK256 CODESIZE BLOCKHASH DUP1 0xB8 SWAP3 0xCE PUSH26 0xD521CACC9E9583603AAEF7482A9ED95FA0158956B6B45D88A064 PUSH20 0x6F6C634300081800330000000000000000000000 "},"methodIdentifiers":{"allowedTokens(address)":"e744092e","executePolicyAction((address,uint8,bytes32,address,uint256,uint256,uint64,uint64,uint16,address))":"1f5f1162","lastExecutionAt(address,bytes32)":"309a8d08","owner()":"8da5cb5b","paused()":"5c975abb","policyAdmins(address)":"9ca1bfbe","setAllowedToken(address,bool)":"8aaa2284","setPaused(bool)":"16c38b3c","setPolicyAdmin(address,bool)":"5fffea45","setUserRiskScore(address,uint8)":"648f4627","setVenuePolicy(bytes32,(bool,address,uint128,uint32,uint32,uint8,bool))":"bf5d6260","transferOwnership(address)":"f2fde38b","userRiskScores(address)":"594b1119","venuePolicies(bytes32)":"d2ae4fa3"}}}}}