{
  "_format": "hh-sol-artifact-1",
  "contractName": "PolicyRouter",
  "sourceName": "src/PolicyRouter.sol",
  "abi": [
    {
      "inputs": [
        {
          "internalType": "address",
          "name": "initialOwner",
          "type": "address"
        }
      ],
      "stateMutability": "nonpayable",
      "type": "constructor"
    },
    {
      "inputs": [],
      "name": "AmountExceedsVenueLimit",
      "type": "error"
    },
    {
      "inputs": [],
      "name": "CooldownActive",
      "type": "error"
    },
    {
      "inputs": [],
      "name": "ExecutionOutputTooLow",
      "type": "error"
    },
    {
      "inputs": [],
      "name": "NotOwner",
      "type": "error"
    },
    {
      "inputs": [],
      "name": "NotPolicyAdmin",
      "type": "error"
    },
    {
      "inputs": [],
      "name": "QuoteExpired",
      "type": "error"
    },
    {
      "inputs": [],
      "name": "QuoteTooOld",
      "type": "error"
    },
    {
      "inputs": [],
      "name": "RecipientMismatch",
      "type": "error"
    },
    {
      "inputs": [],
      "name": "RiskScoreTooLow",
      "type": "error"
    },
    {
      "inputs": [],
      "name": "RouterPausedError",
      "type": "error"
    },
    {
      "inputs": [],
      "name": "TokenNotAllowed",
      "type": "error"
    },
    {
      "inputs": [],
      "name": "VenueNotEnabled",
      "type": "error"
    },
    {
      "anonymous": false,
      "inputs": [
        {
          "indexed": true,
          "internalType": "address",
          "name": "previousOwner",
          "type": "address"
        },
        {
          "indexed": true,
          "internalType": "address",
          "name": "newOwner",
          "type": "address"
        }
      ],
      "name": "OwnerTransferred",
      "type": "event"
    },
    {
      "anonymous": false,
      "inputs": [
        {
          "indexed": true,
          "internalType": "address",
          "name": "user",
          "type": "address"
        },
        {
          "indexed": true,
          "internalType": "bytes32",
          "name": "venueIdHash",
          "type": "bytes32"
        },
        {
          "indexed": false,
          "internalType": "enum PolicyRouter.PolicyAction",
          "name": "action",
          "type": "uint8"
        },
        {
          "indexed": false,
          "internalType": "address",
          "name": "token",
          "type": "address"
        },
        {
          "indexed": false,
          "internalType": "uint256",
          "name": "amount",
          "type": "uint256"
        },
        {
          "indexed": false,
          "internalType": "address",
          "name": "recipient",
          "type": "address"
        }
      ],
      "name": "PolicyActionExecuted",
      "type": "event"
    },
    {
      "anonymous": false,
      "inputs": [
        {
          "indexed": true,
          "internalType": "address",
          "name": "admin",
          "type": "address"
        },
        {
          "indexed": false,
          "internalType": "bool",
          "name": "allowed",
          "type": "bool"
        }
      ],
      "name": "PolicyAdminSet",
      "type": "event"
    },
    {
      "anonymous": false,
      "inputs": [
        {
          "indexed": false,
          "internalType": "bool",
          "name": "paused",
          "type": "bool"
        }
      ],
      "name": "RouterPaused",
      "type": "event"
    },
    {
      "anonymous": false,
      "inputs": [
        {
          "indexed": true,
          "internalType": "address",
          "name": "token",
          "type": "address"
        },
        {
          "indexed": false,
          "internalType": "bool",
          "name": "allowed",
          "type": "bool"
        }
      ],
      "name": "TokenAllowed",
      "type": "event"
    },
    {
      "anonymous": false,
      "inputs": [
        {
          "indexed": true,
          "internalType": "address",
          "name": "user",
          "type": "address"
        },
        {
          "indexed": false,
          "internalType": "uint8",
          "name": "riskScore",
          "type": "uint8"
        }
      ],
      "name": "UserRiskScoreSet",
      "type": "event"
    },
    {
      "anonymous": false,
      "inputs": [
        {
          "indexed": true,
          "internalType": "bytes32",
          "name": "venueIdHash",
          "type": "bytes32"
        },
        {
          "indexed": true,
          "internalType": "address",
          "name": "executor",
          "type": "address"
        },
        {
          "indexed": false,
          "internalType": "bool",
          "name": "enabled",
          "type": "bool"
        },
        {
          "indexed": false,
          "internalType": "uint128",
          "name": "maxAmount",
          "type": "uint128"
        },
        {
          "indexed": false,
          "internalType": "uint32",
          "name": "cooldownSeconds",
          "type": "uint32"
        },
        {
          "indexed": false,
          "internalType": "uint32",
          "name": "maxQuoteAgeSeconds",
          "type": "uint32"
        },
        {
          "indexed": false,
          "internalType": "uint8",
          "name": "minUserRiskScore",
          "type": "uint8"
        },
        {
          "indexed": false,
          "internalType": "bool",
          "name": "requiresRecipientMatch",
          "type": "bool"
        }
      ],
      "name": "VenuePolicySet",
      "type": "event"
    },
    {
      "inputs": [
        {
          "internalType": "address",
          "name": "",
          "type": "address"
        }
      ],
      "name": "allowedTokens",
      "outputs": [
        {
          "internalType": "bool",
          "name": "",
          "type": "bool"
        }
      ],
      "stateMutability": "view",
      "type": "function"
    },
    {
      "inputs": [
        {
          "components": [
            {
              "internalType": "address",
              "name": "user",
              "type": "address"
            },
            {
              "internalType": "enum PolicyRouter.PolicyAction",
              "name": "action",
              "type": "uint8"
            },
            {
              "internalType": "bytes32",
              "name": "venueIdHash",
              "type": "bytes32"
            },
            {
              "internalType": "address",
              "name": "token",
              "type": "address"
            },
            {
              "internalType": "uint256",
              "name": "amount",
              "type": "uint256"
            },
            {
              "internalType": "uint256",
              "name": "minOutputAmount",
              "type": "uint256"
            },
            {
              "internalType": "uint64",
              "name": "quoteTimestamp",
              "type": "uint64"
            },
            {
              "internalType": "uint64",
              "name": "quoteExpiresAt",
              "type": "uint64"
            },
            {
              "internalType": "uint16",
              "name": "maxSlippageBps",
              "type": "uint16"
            },
            {
              "internalType": "address",
              "name": "recipient",
              "type": "address"
            }
          ],
          "internalType": "struct PolicyRouter.ExecutionRequest",
          "name": "request",
          "type": "tuple"
        }
      ],
      "name": "executePolicyAction",
      "outputs": [
        {
          "internalType": "uint256",
          "name": "outputAmount",
          "type": "uint256"
        }
      ],
      "stateMutability": "nonpayable",
      "type": "function"
    },
    {
      "inputs": [
        {
          "internalType": "address",
          "name": "",
          "type": "address"
        },
        {
          "internalType": "bytes32",
          "name": "",
          "type": "bytes32"
        }
      ],
      "name": "lastExecutionAt",
      "outputs": [
        {
          "internalType": "uint256",
          "name": "",
          "type": "uint256"
        }
      ],
      "stateMutability": "view",
      "type": "function"
    },
    {
      "inputs": [],
      "name": "owner",
      "outputs": [
        {
          "internalType": "address",
          "name": "",
          "type": "address"
        }
      ],
      "stateMutability": "view",
      "type": "function"
    },
    {
      "inputs": [],
      "name": "paused",
      "outputs": [
        {
          "internalType": "bool",
          "name": "",
          "type": "bool"
        }
      ],
      "stateMutability": "view",
      "type": "function"
    },
    {
      "inputs": [
        {
          "internalType": "address",
          "name": "",
          "type": "address"
        }
      ],
      "name": "policyAdmins",
      "outputs": [
        {
          "internalType": "bool",
          "name": "",
          "type": "bool"
        }
      ],
      "stateMutability": "view",
      "type": "function"
    },
    {
      "inputs": [
        {
          "internalType": "address",
          "name": "token",
          "type": "address"
        },
        {
          "internalType": "bool",
          "name": "allowed",
          "type": "bool"
        }
      ],
      "name": "setAllowedToken",
      "outputs": [],
      "stateMutability": "nonpayable",
      "type": "function"
    },
    {
      "inputs": [
        {
          "internalType": "bool",
          "name": "nextPaused",
          "type": "bool"
        }
      ],
      "name": "setPaused",
      "outputs": [],
      "stateMutability": "nonpayable",
      "type": "function"
    },
    {
      "inputs": [
        {
          "internalType": "address",
          "name": "admin",
          "type": "address"
        },
        {
          "internalType": "bool",
          "name": "allowed",
          "type": "bool"
        }
      ],
      "name": "setPolicyAdmin",
      "outputs": [],
      "stateMutability": "nonpayable",
      "type": "function"
    },
    {
      "inputs": [
        {
          "internalType": "address",
          "name": "user",
          "type": "address"
        },
        {
          "internalType": "uint8",
          "name": "riskScore",
          "type": "uint8"
        }
      ],
      "name": "setUserRiskScore",
      "outputs": [],
      "stateMutability": "nonpayable",
      "type": "function"
    },
    {
      "inputs": [
        {
          "internalType": "bytes32",
          "name": "venueIdHash",
          "type": "bytes32"
        },
        {
          "components": [
            {
              "internalType": "bool",
              "name": "enabled",
              "type": "bool"
            },
            {
              "internalType": "address",
              "name": "executor",
              "type": "address"
            },
            {
              "internalType": "uint128",
              "name": "maxAmount",
              "type": "uint128"
            },
            {
              "internalType": "uint32",
              "name": "cooldownSeconds",
              "type": "uint32"
            },
            {
              "internalType": "uint32",
              "name": "maxQuoteAgeSeconds",
              "type": "uint32"
            },
            {
              "internalType": "uint8",
              "name": "minUserRiskScore",
              "type": "uint8"
            },
            {
              "internalType": "bool",
              "name": "requiresRecipientMatch",
              "type": "bool"
            }
          ],
          "internalType": "struct PolicyRouter.VenuePolicy",
          "name": "policy",
          "type": "tuple"
        }
      ],
      "name": "setVenuePolicy",
      "outputs": [],
      "stateMutability": "nonpayable",
      "type": "function"
    },
    {
      "inputs": [
        {
          "internalType": "address",
          "name": "newOwner",
          "type": "address"
        }
      ],
      "name": "transferOwnership",
      "outputs": [],
      "stateMutability": "nonpayable",
      "type": "function"
    },
    {
      "inputs": [
        {
          "internalType": "address",
          "name": "",
          "type": "address"
        }
      ],
      "name": "userRiskScores",
      "outputs": [
        {
          "internalType": "uint8",
          "name": "",
          "type": "uint8"
        }
      ],
      "stateMutability": "view",
      "type": "function"
    },
    {
      "inputs": [
        {
          "internalType": "bytes32",
          "name": "",
          "type": "bytes32"
        }
      ],
      "name": "venuePolicies",
      "outputs": [
        {
          "internalType": "bool",
          "name": "enabled",
          "type": "bool"
        },
        {
          "internalType": "address",
          "name": "executor",
          "type": "address"
        },
        {
          "internalType": "uint128",
          "name": "maxAmount",
          "type": "uint128"
        },
        {
          "internalType": "uint32",
          "name": "cooldownSeconds",
          "type": "uint32"
        },
        {
          "internalType": "uint32",
          "name": "maxQuoteAgeSeconds",
          "type": "uint32"
        },
        {
          "internalType": "uint8",
          "name": "minUserRiskScore",
          "type": "uint8"
        },
        {
          "internalType": "bool",
          "name": "requiresRecipientMatch",
          "type": "bool"
        }
      ],
      "stateMutability": "view",
      "type": "function"
    }
  ],
  "bytecode": "0x608060405234801561001057600080fd5b506040516112c23803806112c283398101604081905261002f9161007d565b600080546001600160a01b0319166001600160a01b03831690811782556040519091907f8934ce4adea8d9ce0d714d2c22b86790e41b7731c84b926fbbdc1d40ff6533c9908290a3506100ad565b60006020828403121561008f57600080fd5b81516001600160a01b03811681146100a657600080fd5b9392505050565b611206806100bc6000396000f3fe608060405234801561001057600080fd5b50600436106100ea5760003560e01c80638aaa22841161008c578063bf5d626011610066578063bf5d626014610235578063d2ae4fa314610248578063e744092e14610313578063f2fde38b1461033657600080fd5b80638aaa2284146101d45780638da5cb5b146101e75780639ca1bfbe1461021257600080fd5b8063594b1119116100c8578063594b1119146101555780635c975abb1461018a5780635fffea45146101ae578063648f4627146101c157600080fd5b806316c38b3c146100ef5780631f5f116214610104578063309a8d081461012a575b600080fd5b6101026100fd366004610d55565b610349565b005b610117610112366004610d79565b6103ea565b6040519081526020015b60405180910390f35b610117610138366004610da7565b600560209081526000928352604080842090915290825290205481565b610178610163366004610dd3565b60026020526000908152604090205460ff1681565b60405160ff9091168152602001610121565b60005461019e90600160a01b900460ff1681565b6040519015158152602001610121565b6101026101bc366004610df0565b6109a5565b6101026101cf366004610e38565b610a30565b6101026101e2366004610df0565b610ad2565b6000546101fa906001600160a01b031681565b6040516001600160a01b039091168152602001610121565b61019e610220366004610dd3565b60016020526000908152604090205460ff1681565b610102610243366004610e66565b610b73565b6102bc610256366004610e9f565b6004602052600090815260409020805460019091015460ff808316926001600160a01b0361010090910416916001600160801b0381169163ffffffff600160801b8304811692600160a01b810490911691600160c01b8204811691600160c81b90041687565b6040805197151588526001600160a01b0390961660208801526001600160801b039094169486019490945263ffffffff918216606086015216608084015260ff90911660a0830152151560c082015260e001610121565b61019e610321366004610dd3565b60036020526000908152604090205460ff1681565b610102610344366004610dd3565b610cbe565b6000546001600160a01b0316331480159061037457503360009081526001602052604090205460ff16155b1561039257604051634e76d0e360e11b815260040160405180910390fd5b60008054821515600160a01b0260ff60a01b199091161790556040517f813a96dd8899014cfb03844981ecae875122423482199678702de99354daf0cb906103df90831515815260200190565b60405180910390a150565b60008054600160a01b900460ff161561041657604051631edff7fd60e11b815260040160405180910390fd5b6003600061042a6080850160608601610dd3565b6001600160a01b0316815260208101919091526040016000205460ff166104645760405163514e24c360e11b815260040160405180910390fd5b60408281013560009081526004602090815290829020825160e081018452815460ff80821615801584526101009092046001600160a01b0316948301949094526001909201546001600160801b03811694820194909452600160801b840463ffffffff9081166060830152600160a01b8504166080820152600160c01b8404831660a0820152600160c81b909304909116151560c083015280610512575060208101516001600160a01b0316155b1561053057604051637f29cb5b60e01b815260040160405180910390fd5b80604001516001600160801b031683608001351115610562576040516358d8542f60e01b815260040160405180910390fd5b610573610100840160e08501610eb8565b67ffffffffffffffff1642111561059d57604051638727a7f960e01b815260040160405180910390fd5b608081015163ffffffff166105b860e0850160c08601610eb8565b6105c29190610ef8565b67ffffffffffffffff164211156105ec576040516301dbd10b60e21b815260040160405180910390fd5b60a081015160ff16600260006106056020870187610dd3565b6001600160a01b0316815260208101919091526040016000205460ff1610156106415760405163b988538360e01b815260040160405180910390fd5b606081015160009063ffffffff1660058261065f6020880188610dd3565b6001600160a01b03166001600160a01b031681526020019081526020016000206000866040013581526020019081526020016000205461069f9190610f20565b9050804210156106c25760405163aa9a98df60e01b815260040160405180910390fd5b8160c00151801561070257506106db6020850185610dd3565b6001600160a01b03166106f661014086016101208701610dd3565b6001600160a01b031614155b156107205760405163c0ee95bb60e01b815260040160405180910390fd5b42600560006107326020880188610dd3565b6001600160a01b0316815260208082019290925260409081016000908120888301803583529084529181209390935561076c918701610f4f565b600381111561077d5761077d610f39565b036108175760408401356107946020860186610dd3565b6001600160a01b03167f6192c1ee4e1c9a191a0c72f1bbb0a55b6447b47934933cdbc71d931928bc3a8b6107ce6040880160208901610f4f565b6107de6080890160608a01610dd3565b60808901356107f56101408b016101208c01610dd3565b6040516108059493929190610f70565b60405180910390a35050506080013590565b6020808301516001600160a01b031690632d3d8f2e9061083990870187610dd3565b6108496080880160608901610dd3565b608088013560a08901356108656101408b016101208c01610dd3565b60405160e087901b6001600160e01b03191681526001600160a01b039586166004820152938516602485015260448401929092526064830152909116608482015260a4016020604051808303816000875af11580156108c8573d6000803e3d6000fd5b505050506040513d601f19601f820116820180604052508101906108ec9190610fb9565b92508360a0013583101561091357604051634dc3a63d60e01b815260040160405180910390fd5b60408401356109256020860186610dd3565b6001600160a01b03167f6192c1ee4e1c9a191a0c72f1bbb0a55b6447b47934933cdbc71d931928bc3a8b61095f6040880160208901610f4f565b61096f6080890160608a01610dd3565b60808901356109866101408b016101208c01610dd3565b6040516109969493929190610f70565b60405180910390a35050919050565b6000546001600160a01b031633146109d0576040516330cd747160e01b815260040160405180910390fd5b6001600160a01b038216600081815260016020908152604091829020805460ff191685151590811790915591519182527f4a87ec76ba5cec1c5f52eeb2a5324a25ddf2218b53038bd9006449a0c7927f6791015b60405180910390a25050565b6000546001600160a01b03163314801590610a5b57503360009081526001602052604090205460ff16155b15610a7957604051634e76d0e360e11b815260040160405180910390fd5b6001600160a01b038216600081815260026020908152604091829020805460ff191660ff861690811790915591519182527f8dcabfb6f87a07ca3e489a5a86a8481a430e0ed744ce7e5b4b33b69758c510019101610a24565b6000546001600160a01b03163314801590610afd57503360009081526001602052604090205460ff16155b15610b1b57604051634e76d0e360e11b815260040160405180910390fd5b6001600160a01b038216600081815260036020908152604091829020805460ff191685151590811790915591519182527f9a8e30a8658b96ab3f034ce4bac6806278b4aee5880ccdd1ac35e4ed5bb31d239101610a24565b6000546001600160a01b03163314801590610b9e57503360009081526001602052604090205460ff16155b15610bbc57604051634e76d0e360e11b815260040160405180910390fd5b60008281526004602052604090208190610bd6828261102d565b50610be990506040820160208301610dd3565b6001600160a01b0316827ff2c61e40fcf1afacab78a6cd89e173e568751e2a7264238c360136ca0a41f8d9610c216020850185610d55565b610c316060860160408701611179565b610c416080870160608801611196565b610c5160a0880160808901611196565b610c6160c0890160a08a016111b3565b610c7160e08a0160c08b01610d55565b6040805196151587526001600160801b03909516602087015263ffffffff938416948601949094529116606084015260ff166080830152151560a082015260c00160405180910390a35050565b6000546001600160a01b03163314610ce9576040516330cd747160e01b815260040160405180910390fd5b600080546040516001600160a01b03808516939216917f8934ce4adea8d9ce0d714d2c22b86790e41b7731c84b926fbbdc1d40ff6533c991a3600080546001600160a01b0319166001600160a01b0392909216919091179055565b8015158114610d5257600080fd5b50565b600060208284031215610d6757600080fd5b8135610d7281610d44565b9392505050565b60006101408284031215610d8c57600080fd5b50919050565b6001600160a01b0381168114610d5257600080fd5b60008060408385031215610dba57600080fd5b8235610dc581610d92565b946020939093013593505050565b600060208284031215610de557600080fd5b8135610d7281610d92565b60008060408385031215610e0357600080fd5b8235610e0e81610d92565b91506020830135610e1e81610d44565b809150509250929050565b60ff81168114610d5257600080fd5b60008060408385031215610e4b57600080fd5b8235610e5681610d92565b91506020830135610e1e81610e29565b600080828403610100811215610e7b57600080fd5b8335925060e0601f1982011215610e9157600080fd5b506020830190509250929050565b600060208284031215610eb157600080fd5b5035919050565b600060208284031215610eca57600080fd5b813567ffffffffffffffff81168114610d7257600080fd5b634e487b7160e01b600052601160045260246000fd5b67ffffffffffffffff818116838216019080821115610f1957610f19610ee2565b5092915050565b80820180821115610f3357610f33610ee2565b92915050565b634e487b7160e01b600052602160045260246000fd5b600060208284031215610f6157600080fd5b813560048110610d7257600080fd5b6080810160048610610f9257634e487b7160e01b600052602160045260246000fd5b9481526001600160a01b039384166020820152604081019290925290911660609091015290565b600060208284031215610fcb57600080fd5b5051919050565b60008135610f3381610d44565b6001600160801b0381168114610d5257600080fd5b60008135610f3381610fdf565b63ffffffff81168114610d5257600080fd5b60008135610f3381611001565b60008135610f3381610e29565b813561103881610d44565b815460ff19811691151560ff169182178355602084013561105881610d92565b6001600160a81b03199190911690911760089190911b610100600160a81b0316178155600181016110b461108e60408501610ff4565b82546fffffffffffffffffffffffffffffffff19166001600160801b0391909116178255565b6110e76110c360608501611013565b82805463ffffffff60801b191660809290921b63ffffffff60801b16919091179055565b61111a6110f660808501611013565b82805463ffffffff60a01b191660a09290921b63ffffffff60a01b16919091179055565b61114761112960a08501611020565b82805460ff60c01b191660c09290921b60ff60c01b16919091179055565b61117461115660c08501610fd2565b82805460ff60c81b191691151560c81b60ff60c81b16919091179055565b505050565b60006020828403121561118b57600080fd5b8135610d7281610fdf565b6000602082840312156111a857600080fd5b8135610d7281611001565b6000602082840312156111c557600080fd5b8135610d7281610e2956fea2646970667358221220384080b892ce79d521cacc9e9583603aaef7482a9ed95fa0158956b6b45d88a064736f6c63430008180033",
  "linkReferences": {},
  "deployedLinkReferences": {}
}